:100000000C945400189518951895189518951895EE
:100010001895189518951895189518951895189578
:100020001895189518951895189518951895189568
:100030001895189518951895189518951895189558
:100040001895189518951895189518951895189548
:100050001895189518951895189518951895189538
:100060001895189518951895229720E030E0288368
:10007000398306C0288139812F5F3F4F2883398318
:100080002881398120173107A8F3229608952098F6
:10009000219A02E015B1102715B900E513ECE4DF51
:1000A000F8CF00008895FECF0FE30DBF01E00EBF33
:1000B000C0E2D1E00E9462000E9447000E9451000D
:0800C0000C94510001E00895C9
:0000A80157
:00000001FF
